{
  "contractName": "SwappaRouterV1",
  "abi": [
    {
      "inputs": [],
      "stateMutability": "nonpayable",
      "type": "constructor"
    },
    {
      "anonymous": false,
      "inputs": [
        {
          "indexed": true,
          "internalType": "uint256",
          "name": "partnerId",
          "type": "uint256"
        },
        {
          "indexed": true,
          "internalType": "address",
          "name": "initiator",
          "type": "address"
        },
        {
          "indexed": true,
          "internalType": "bool",
          "name": "isAdminFee",
          "type": "bool"
        },
        {
          "indexed": false,
          "internalType": "uint256",
          "name": "oldFee",
          "type": "uint256"
        },
        {
          "indexed": false,
          "internalType": "uint256",
          "name": "newFee",
          "type": "uint256"
        }
      ],
      "name": "FeeChanged",
      "type": "event"
    },
    {
      "anonymous": false,
      "inputs": [
        {
          "indexed": true,
          "internalType": "address",
          "name": "previousOwner",
          "type": "address"
        },
        {
          "indexed": true,
          "internalType": "address",
          "name": "newOwner",
          "type": "address"
        }
      ],
      "name": "OwnershipTransferred",
      "type": "event"
    },
    {
      "anonymous": false,
      "inputs": [
        {
          "indexed": true,
          "internalType": "address",
          "name": "sender",
          "type": "address"
        },
        {
          "indexed": false,
          "internalType": "address",
          "name": "to",
          "type": "address"
        },
        {
          "indexed": true,
          "internalType": "address",
          "name": "input",
          "type": "address"
        },
        {
          "indexed": true,
          "internalType": "address",
          "name": "output",
          "type": "address"
        },
        {
          "indexed": false,
          "internalType": "uint256",
          "name": "inputAmount",
          "type": "uint256"
        },
        {
          "indexed": false,
          "internalType": "uint256",
          "name": "outputAmount",
          "type": "uint256"
        }
      ],
      "name": "Swap",
      "type": "event"
    },
    {
      "inputs": [],
      "name": "FEE_DENOMINATOR",
      "outputs": [
        {
          "internalType": "uint256",
          "name": "",
          "type": "uint256"
        }
      ],
      "stateMutability": "view",
      "type": "function"
    },
    {
      "inputs": [],
      "name": "defaultAdminFee",
      "outputs": [
        {
          "internalType": "uint256",
          "name": "",
          "type": "uint256"
        }
      ],
      "stateMutability": "view",
      "type": "function"
    },
    {
      "inputs": [],
      "name": "owner",
      "outputs": [
        {
          "internalType": "address",
          "name": "",
          "type": "address"
        }
      ],
      "stateMutability": "view",
      "type": "function"
    },
    {
      "inputs": [],
      "name": "renounceOwnership",
      "outputs": [],
      "stateMutability": "nonpayable",
      "type": "function"
    },
    {
      "inputs": [
        {
          "internalType": "address",
          "name": "newOwner",
          "type": "address"
        }
      ],
      "name": "transferOwnership",
      "outputs": [],
      "stateMutability": "nonpayable",
      "type": "function"
    },
    {
      "stateMutability": "payable",
      "type": "receive"
    },
    {
      "inputs": [
        {
          "internalType": "address",
          "name": "token",
          "type": "address"
        },
        {
          "internalType": "address",
          "name": "reciever",
          "type": "address"
        }
      ],
      "name": "recoverAdminFee",
      "outputs": [],
      "stateMutability": "nonpayable",
      "type": "function"
    },
    {
      "inputs": [
        {
          "internalType": "address",
          "name": "addr",
          "type": "address"
        },
        {
          "internalType": "bool",
          "name": "isAdmin",
          "type": "bool"
        }
      ],
      "name": "setAdmin",
      "outputs": [],
      "stateMutability": "nonpayable",
      "type": "function"
    },
    {
      "inputs": [
        {
          "internalType": "uint256",
          "name": "partnerId",
          "type": "uint256"
        },
        {
          "internalType": "address",
          "name": "admin",
          "type": "address"
        }
      ],
      "name": "setPartnerAdmin",
      "outputs": [],
      "stateMutability": "nonpayable",
      "type": "function"
    },
    {
      "inputs": [
        {
          "internalType": "uint256",
          "name": "partnerId",
          "type": "uint256"
        },
        {
          "internalType": "uint256",
          "name": "feeNumerator",
          "type": "uint256"
        }
      ],
      "name": "setPartnerFee",
      "outputs": [],
      "stateMutability": "nonpayable",
      "type": "function"
    },
    {
      "inputs": [
        {
          "internalType": "uint256",
          "name": "partnerId",
          "type": "uint256"
        },
        {
          "internalType": "uint256",
          "name": "feeNumerator",
          "type": "uint256"
        }
      ],
      "name": "setAdminFee",
      "outputs": [],
      "stateMutability": "nonpayable",
      "type": "function"
    },
    {
      "inputs": [
        {
          "internalType": "address[]",
          "name": "path",
          "type": "address[]"
        },
        {
          "internalType": "address[]",
          "name": "pairs",
          "type": "address[]"
        },
        {
          "internalType": "bytes[]",
          "name": "extras",
          "type": "bytes[]"
        },
        {
          "internalType": "uint256",
          "name": "inputAmount",
          "type": "uint256"
        }
      ],
      "name": "getOutputAmount",
      "outputs": [
        {
          "internalType": "uint256",
          "name": "outputAmount",
          "type": "uint256"
        }
      ],
      "stateMutability": "view",
      "type": "function"
    },
    {
      "inputs": [
        {
          "components": [
            {
              "internalType": "address[]",
              "name": "path",
              "type": "address[]"
            },
            {
              "internalType": "address[]",
              "name": "pairs",
              "type": "address[]"
            },
            {
              "internalType": "bytes[]",
              "name": "extras",
              "type": "bytes[]"
            },
            {
              "internalType": "uint256",
              "name": "inputAmount",
              "type": "uint256"
            },
            {
              "internalType": "uint256",
              "name": "minOutputAmount",
              "type": "uint256"
            },
            {
              "internalType": "uint256",
              "name": "expectedOutputAmount",
              "type": "uint256"
            },
            {
              "internalType": "address",
              "name": "to",
              "type": "address"
            },
            {
              "internalType": "uint256",
              "name": "deadline",
              "type": "uint256"
            },
            {
              "internalType": "uint256",
              "name": "partner",
              "type": "uint256"
            },
            {
              "internalType": "bytes",
              "name": "sig",
              "type": "bytes"
            }
          ],
          "internalType": "struct ISwappaRouterV1.SwapPayload",
          "name": "details",
          "type": "tuple"
        }
      ],
      "name": "swapExactInputForOutput",
      "outputs": [
        {
          "internalType": "uint256",
          "name": "outputAmount",
          "type": "uint256"
        }
      ],
      "stateMutability": "nonpayable",
      "type": "function"
    }
  ],
  "bytecode": "0x60806040526305f5e10060055534801561001857600080fd5b50600061002c6001600160e01b0361014016565b600080546001600160a01b0319166001600160a01b0383169081178255604051929350917f8be0079c531659141344cd1fd0a4f28419497f9722a3daafe3b4186f6b6457e0908290a3507f17ef568e3e12ab5b9c7254a8d58478811de00f9e6eb34345acd53bf8fd09d3ec80546001600160a01b0319163317905560007f3617319a054d772f909f7c479a2cebe5066e836a939412e32403c99029b92eff8190557fac33ff75c19e70fe83507db0d683fd3465c996598dc972688b7ace676c89077b8190557380c7ee61bb6071aaf89616893836f8a9d7e32cbc9052600160208190527f6dd48b307a2da3ad1ef265f9a0494529c64974b95c3d1e3343c5a6900d39111d805460ff19169091179055610144565b3390565b611fe7806101536000396000f3fe6080604052600436106100cb5760003560e01c80639acc65a911610074578063e2f46a001161004e578063e2f46a00146101f0578063e54e04f814610210578063f2fde38b14610230576100d2565b80639acc65a91461019b578063d6a73927146101bb578063d73792a9146101db576100d2565b8063715018a6116100a5578063715018a6146101395780638da5cb5b1461014e5780638e00cfcc14610179576100d2565b80633e05cd82146100d75780634b0bddd2146100f9578063587ac9de14610119576100d2565b366100d257005b600080fd5b3480156100e357600080fd5b506100f76100f2366004611614565b610250565b005b34801561010557600080fd5b506100f7610114366004611648565b610419565b34801561012557600080fd5b506100f76101343660046117b7565b6104b1565b34801561014557600080fd5b506100f7610578565b34801561015a57600080fd5b50610163610629565b60405161017091906118b9565b60405180910390f35b34801561018557600080fd5b5061018e610645565b6040516101709190611e87565b3480156101a757600080fd5b5061018e6101b636600461173a565b61064b565b3480156101c757600080fd5b506100f76101d63660046117b7565b610ca4565b3480156101e757600080fd5b5061018e610d5e565b3480156101fc57600080fd5b5061018e61020b36600461167f565b610d67565b34801561021c57600080fd5b506100f761022b366004611794565b610e99565b34801561023c57600080fd5b506100f761024b3660046115f9565b610f4c565b3360009081526001602052604090205460ff16806102a05750610271610629565b73ffffffffffffffffffffffffffffffffffffffff163373ffffffffffffffffffffffffffffffffffffffff16145b6102c55760405162461bcd60e51b81526004016102bc90611a57565b60405180910390fd5b6040517f70a0823100000000000000000000000000000000000000000000000000000000815260009073ffffffffffffffffffffffffffffffffffffffff8416906370a082319061031a9030906004016118b9565b60206040518083038186803b15801561033257600080fd5b505afa158015610346573d6000803e3d6000fd5b505050506040513d601f19601f8201168201806040525081019061036a919061177c565b6040517fa9059cbb00000000000000000000000000000000000000000000000000000000815290915073ffffffffffffffffffffffffffffffffffffffff84169063a9059cbb906103c190859085906004016119d2565b602060405180830381600087803b1580156103db57600080fd5b505af11580156103ef573d6000803e3d6000fd5b505050506040513d601f19601f82011682018060405250810190610413919061171e565b50505050565b61042161104e565b60005473ffffffffffffffffffffffffffffffffffffffff90811691161461045b5760405162461bcd60e51b81526004016102bc90611c39565b73ffffffffffffffffffffffffffffffffffffffff91909116600090815260016020526040902080547fffffffffffffffffffffffffffffffffffffffffffffffffffffffffffffff0016911515919091179055565b3360009081526001602052604090205460ff168061050157506104d2610629565b73ffffffffffffffffffffffffffffffffffffffff163373ffffffffffffffffffffffffffffffffffffffff16145b61051d5760405162461bcd60e51b81526004016102bc90611a57565b600082815260036020526040908190208054908390559051600190339085907f554029c2305458d550a2bf56ed71f93d754ce963e8599909926079c63e4bbcb49061056b9086908890611e90565b60405180910390a4505050565b61058061104e565b60005473ffffffffffffffffffffffffffffffffffffffff9081169116146105ba5760405162461bcd60e51b81526004016102bc90611c39565b6000805460405173ffffffffffffffffffffffffffffffffffffffff909116907f8be0079c531659141344cd1fd0a4f28419497f9722a3daafe3b4186f6b6457e0908390a3600080547fffffffffffffffffffffffff0000000000000000000000000000000000000000169055565b60005473ffffffffffffffffffffffffffffffffffffffff1690565b60055481565b60008160e00135428110156106725760405162461bcd60e51b81526004016102bc90611ccb565b61067f6020840184611e9e565b600101905061068e8480611e9e565b9050146106ad5760405162461bcd60e51b81526004016102bc90611d96565b6106ba6040840184611f07565b90506106c96020850185611e9e565b9050146106e85760405162461bcd60e51b81526004016102bc90611d39565b60006106f76020850185611e9e565b9050116107165760405162461bcd60e51b81526004016102bc90611b22565b6107208380611e9e565b600081811061072b57fe5b905060200201602081019061074091906115f9565b73ffffffffffffffffffffffffffffffffffffffff166323b872dd336107696020870187611e9e565b600081811061077457fe5b905060200201602081019061078991906115f9565b86606001356040518463ffffffff1660e01b81526004016107ac939291906118da565b602060405180830381600087803b1580156107c657600080fd5b505af11580156107da573d6000803e3d6000fd5b505050506040513d601f19601f820116820180604052508101906107fe919061171e565b61081a5760405162461bcd60e51b81526004016102bc90611b7f565b60006108268480611e9e565b60016108328780611e9e565b90500381811061083e57fe5b905060200201602081019061085391906115f9565b905060008173ffffffffffffffffffffffffffffffffffffffff166370a08231306040518263ffffffff1660e01b815260040161089091906118b9565b60206040518083038186803b1580156108a857600080fd5b505afa1580156108bc573d6000803e3d6000fd5b505050506040513d601f19601f820116820180604052508101906108e0919061177c565b905060005b6108f26020870187611e9e565b9050811015610ab8576000806109088880611e9e565b8481811061091257fe5b905060200201602081019061092791906115f9565b6109318980611e9e565b8560010181811061093e57fe5b905060200201602081019061095391906115f9565b90925090506000600161096960208b018b611e9e565b905003841061097857306109a7565b61098560208a018a611e9e565b8560010181811061099257fe5b90506020020160208101906109a791906115f9565b905060606109b860408b018b611f07565b868181106109c257fe5b90506020028101906109d49190611f3b565b8080601f016020809104026020016040519081016040528093929190818152602001838380828437600092019190915250929350610a199250505060208b018b611e9e565b86818110610a2357fe5b9050602002016020810190610a3891906115f9565b73ffffffffffffffffffffffffffffffffffffffff166332ef8314858585856040518563ffffffff1660e01b8152600401610a76949392919061190b565b600060405180830381600087803b158015610a9057600080fd5b505af1158015610aa4573d6000803e3d6000fd5b5050600190960195506108e5945050505050565b506000818373ffffffffffffffffffffffffffffffffffffffff166370a08231306040518263ffffffff1660e01b8152600401610af591906118b9565b60206040518083038186803b158015610b0d57600080fd5b505afa158015610b21573d6000803e3d6000fd5b505050506040513d601f19601f82011682018060405250810190610b45919061177c565b0390506000610bcb61010088013560e0890135610b628a80611e9e565b6000818110610b6d57fe5b9050602002016020810190610b8291906115f9565b87610b916101208d018d611f3b565b8080601f01602080910402602001604051908101604052809392919081815260200183838082843760009201919091525061105292505050565b9050610bf284608089013560a08a013585610bec60e08d0160c08e016115f9565b86611169565b955073ffffffffffffffffffffffffffffffffffffffff8416610c158880611e9e565b6000818110610c2057fe5b9050602002016020810190610c3591906115f9565b73ffffffffffffffffffffffffffffffffffffffff16337f20efd6d5195b7b50273f01cd79a27989255356f9f13293edc53ee142accfdb75610c7d60e08c0160c08d016115f9565b8b606001358b604051610c92939291906119f8565b60405180910390a45050505050919050565b33600090815260016020526040902054829060ff1680610ce7575060008181526004602052604090205473ffffffffffffffffffffffffffffffffffffffff1633145b610d035760405162461bcd60e51b81526004016102bc90611a57565b6000838152600260205260408082208054908590559051909190339086907f554029c2305458d550a2bf56ed71f93d754ce963e8599909926079c63e4bbcb490610d509086908990611e90565b60405180910390a450505050565b6402540be40081565b8060005b85811015610e8d57868682818110610d7f57fe5b9050602002016020810190610d9491906115f9565b73ffffffffffffffffffffffffffffffffffffffff16637eace8928a8a84818110610dbb57fe5b9050602002016020810190610dd091906115f9565b8b8b85600101818110610ddf57fe5b9050602002016020810190610df491906115f9565b85898987818110610e0157fe5b9050602002810190610e139190611f3b565b6040518663ffffffff1660e01b8152600401610e33959493929190611956565b60206040518083038186803b158015610e4b57600080fd5b505afa158015610e5f573d6000803e3d6000fd5b505050506040513d601f19601f82011682018060405250810190610e83919061177c565b9150600101610d6b565b50979650505050505050565b33600090815260016020526040902054829060ff1680610edc575060008181526004602052604090205473ffffffffffffffffffffffffffffffffffffffff1633145b610ef85760405162461bcd60e51b81526004016102bc90611a57565b5060009182526004602052604090912080547fffffffffffffffffffffffff00000000000000000000000000000000000000001673ffffffffffffffffffffffffffffffffffffffff909216919091179055565b610f5461104e565b60005473ffffffffffffffffffffffffffffffffffffffff908116911614610f8e5760405162461bcd60e51b81526004016102bc90611c39565b73ffffffffffffffffffffffffffffffffffffffff8116610fc15760405162461bcd60e51b81526004016102bc90611a8e565b6000805460405173ffffffffffffffffffffffffffffffffffffffff808516939216917f8be0079c531659141344cd1fd0a4f28419497f9722a3daafe3b4186f6b6457e091a3600080547fffffffffffffffffffffffff00000000000000000000000000000000000000001673ffffffffffffffffffffffffffffffffffffffff92909216919091179055565b3390565b60008061108a8787878760405160200161106f9493929190611872565b604051602081830303815290604052805190602001206113cb565b9050600080600061109a866113fb565b8093508194508295505050506000600185858585604051600081526020016040526040516110cb9493929190611a26565b6020604051602081039080840390855afa1580156110ed573d6000803e3d6000fd5b5050604080517fffffffffffffffffffffffffffffffffffffffffffffffffffffffffffffffe0015173ffffffffffffffffffffffffffffffffffffffff811660009081526001602052919091205490925060ff16159050611156578a95505050505050611160565b6000955050505050505b95945050505050565b60008181526002602052604081205481906111a2906402540be4009061119690889063ffffffff61143d16565b9063ffffffff61148016565b600084815260036020526040812054919250906111d1906402540be4009061119690899063ffffffff61143d16565b90506111f36111e6838363ffffffff6114c216565b879063ffffffff6114e716565b95508686106112025786611204565b855b9550878610156112265760405162461bcd60e51b81526004016102bc90611df3565b6040517fa9059cbb00000000000000000000000000000000000000000000000000000000815273ffffffffffffffffffffffffffffffffffffffff8a169063a9059cbb9061127a9088908a906004016119d2565b602060405180830381600087803b15801561129457600080fd5b505af11580156112a8573d6000803e3d6000fd5b505050506040513d601f19601f820116820180604052508101906112cc919061171e565b6112e85760405162461bcd60e51b81526004016102bc90611c6e565b6000848152600460208190526040918290205491517fa9059cbb00000000000000000000000000000000000000000000000000000000815273ffffffffffffffffffffffffffffffffffffffff808d169363a9059cbb936113509391909216918791016119d2565b602060405180830381600087803b15801561136a57600080fd5b505af115801561137e573d6000803e3d6000fd5b505050506040513d601f19601f820116820180604052508101906113a2919061171e565b6113be5760405162461bcd60e51b81526004016102bc90611d02565b5093979650505050505050565b6000816040516020016113de9190611841565b604051602081830303815290604052805190602001209050919050565b600080600083516041146114215760405162461bcd60e51b81526004016102bc90611e50565b5050506020810151604082015160609092015160001a92909190565b60008261144c5750600061147a565b8282028284828161145957fe5b04146114775760405162461bcd60e51b81526004016102bc90611bdc565b90505b92915050565b600061147783836040518060400160405280601a81526020017f536166654d6174683a206469766973696f6e206279207a65726f000000000000815250611529565b6000828201838110156114775760405162461bcd60e51b81526004016102bc90611aeb565b600061147783836040518060400160405280601e81526020017f536166654d6174683a207375627472616374696f6e206f766572666c6f770000815250611560565b6000818361154a5760405162461bcd60e51b81526004016102bc9190611a44565b50600083858161155657fe5b0495945050505050565b600081848411156115845760405162461bcd60e51b81526004016102bc9190611a44565b505050900390565b803573ffffffffffffffffffffffffffffffffffffffff8116811461147a57600080fd5b60008083601f8401126115c1578182fd5b50813567ffffffffffffffff8111156115d8578182fd5b60208301915083602080830285010111156115f257600080fd5b9250929050565b60006020828403121561160a578081fd5b611477838361158c565b60008060408385031215611626578081fd5b611630848461158c565b915061163f846020850161158c565b90509250929050565b6000806040838503121561165a578182fd5b611664848461158c565b9150602083013561167481611fa0565b809150509250929050565b60008060008060008060006080888a031215611699578283fd5b873567ffffffffffffffff808211156116b0578485fd5b6116bc8b838c016115b0565b909950975060208a01359150808211156116d4578485fd5b6116e08b838c016115b0565b909750955060408a01359150808211156116f8578485fd5b506117058a828b016115b0565b989b979a50959894979596606090950135949350505050565b60006020828403121561172f578081fd5b815161147781611fa0565b60006020828403121561174b578081fd5b813567ffffffffffffffff811115611761578182fd5b8083016101408186031215611774578283fd5b949350505050565b60006020828403121561178d578081fd5b5051919050565b600080604083850312156117a6578182fd5b8235915061163f846020850161158c565b600080604083850312156117c9578182fd5b50508035926020909101359150565b60008151808452815b818110156117fd576020818501810151868301820152016117e1565b8181111561180e5782602083870101525b50601f017fffffffffffffffffffffffffffffffffffffffffffffffffffffffffffffffe0169290920160200192915050565b7f19457468657265756d205369676e6564204d6573736167653a0a3332000000008152601c810191909152603c0190565b93845260208401929092527fffffffffffffffffffffffffffffffffffffffff000000000000000000000000606091821b8116604085015291901b16605482015260680190565b73ffffffffffffffffffffffffffffffffffffffff91909116815260200190565b73ffffffffffffffffffffffffffffffffffffffff9384168152919092166020820152604081019190915260600190565b600073ffffffffffffffffffffffffffffffffffffffff808716835280861660208401528085166040840152506080606083015261194c60808301846117d8565b9695505050505050565b600073ffffffffffffffffffffffffffffffffffffffff808816835280871660208401525084604083015260806060830152826080830152828460a084013781830160a090810191909152601f9092017fffffffffffffffffffffffffffffffffffffffffffffffffffffffffffffffe0160101949350505050565b73ffffffffffffffffffffffffffffffffffffffff929092168252602082015260400190565b73ffffffffffffffffffffffffffffffffffffffff9390931683526020830191909152604082015260600190565b93845260ff9290921660208401526040830152606082015260800190565b60006020825261147760208301846117d8565b6020808252600c908201527f556e617574686f72697a65640000000000000000000000000000000000000000604082015260600190565b60208082526026908201527f4f776e61626c653a206e6577206f776e657220697320746865207a65726f206160408201527f6464726573730000000000000000000000000000000000000000000000000000606082015260800190565b6020808252601b908201527f536166654d6174683a206164646974696f6e206f766572666c6f770000000000604082015260600190565b6020808252602a908201527f537761707061526f757465723a204d7573742068617665206174206c6561737460408201527f206f6e6520706169722100000000000000000000000000000000000000000000606082015260800190565b6020808252602a908201527f537761707061526f757465723a20496e697469616c207472616e73666572467260408201527f6f6d206661696c65642100000000000000000000000000000000000000000000606082015260800190565b60208082526021908201527f536166654d6174683a206d756c7469706c69636174696f6e206f766572666c6f60408201527f7700000000000000000000000000000000000000000000000000000000000000606082015260800190565b6020808252818101527f4f776e61626c653a2063616c6c6572206973206e6f7420746865206f776e6572604082015260600190565b60208082526024908201527f537761707061526f757465723a2046696e616c207472616e736665722066616960408201527f6c65642100000000000000000000000000000000000000000000000000000000606082015260800190565b60208082526016908201527f537761707061526f757465723a20457870697265642100000000000000000000604082015260600190565b6020808252601b908201527f506172746e657220666565207472616e73666572206661696c65640000000000604082015260600190565b60208082526028908201527f537761707061526f757465723a20506169727320616e6420457874726173206d60408201527f69736d6174636821000000000000000000000000000000000000000000000000606082015260800190565b60208082526026908201527f537761707061526f757465723a205061746820616e64205061697273206d697360408201527f6d61746368210000000000000000000000000000000000000000000000000000606082015260800190565b60208082526029908201527f537761707061526f757465723a20496e73756666696369656e74206f7574707560408201527f7420616d6f756e74210000000000000000000000000000000000000000000000606082015260800190565b60208082526019908201527f7369676e6174757265206973206e6f7420363520627974657300000000000000604082015260600190565b90815260200190565b918252602082015260400190565b60008083357fffffffffffffffffffffffffffffffffffffffffffffffffffffffffffffffe1843603018112611ed2578283fd5b8084018035925067ffffffffffffffff831115611eed578384fd5b60208101935050506020810236038213156115f257600080fd5b60008083357fffffffffffffffffffffffffffffffffffffffffffffffffffffffffffffffe1843603018112611ed2578182fd5b60008083357fffffffffffffffffffffffffffffffffffffffffffffffffffffffffffffffe1843603018112611f6f578182fd5b8084018035925067ffffffffffffffff831115611f8a578384fd5b602001925050368190038213156115f257600080fd5b8015158114611fae57600080fd5b5056fea26469706673582212206ca85b701b8b12c634ae19e2c3b7ceaa0f40cf4f8a5d9cc19c896c50c574400764736f6c63430006080033",
  "immutableReferences": {},
  "source": "// SPDX-License-Identifier: MIT\npragma solidity 0.6.8;\npragma experimental ABIEncoderV2;\n\nimport \"@openzeppelin/contracts/token/ERC20/ERC20.sol\";\nimport \"./ISwappaPairV1.sol\";\nimport \"./ISwappaRouterV1.sol\";\nimport \"@openzeppelin/contracts/access/Ownable.sol\";\nimport \"@openzeppelin/contracts/math/SafeMath.sol\";\nimport \"../interfaces/IFarm.sol\";\n\n\ncontract SwappaRouterV1 is ISwappaRouterV1, Ownable {\n\tusing SafeMath for uint256;\n\n\tmapping(address => bool) private adminSigner;\n\tmapping(uint256 => uint256) private partnerFees;\n\tmapping(uint256 => uint256) private partnerAdminFees;\n\tmapping(uint256 => address) private partnerAdmin;\n\tuint256 public defaultAdminFee = 10 ** 8; // default admin fee of 1%\n\tuint256 public constant FEE_DENOMINATOR = 10 ** 10;\n\n\tevent Swap(\n\t\taddress indexed sender,\n\t\taddress to,\n\t\taddress indexed input,\n\t\taddress indexed output,\n\t\tuint256 inputAmount,\n\t\tuint256 outputAmount\n\t);\n\n\tevent FeeChanged(\n\t\tuint256 indexed partnerId, \n\t\taddress indexed initiator,\n\t\tbool indexed isAdminFee, \n\t\tuint256 oldFee,\n\t\tuint256 newFee\n\t);\n\n\tmodifier ensure(uint deadline) {\n\t\trequire(deadline >= block.timestamp, 'SwappaRouter: Expired!');\n\t\t_;\n\t}\n\n\tmodifier partnerAuthorized(uint256 partnerId) {\n\t\trequire(adminSigner[msg.sender] || partnerAdmin[partnerId] == msg.sender, \"Unauthorized\");\n\t\t_;\n\t}\n\n\tmodifier onlyAdmin() {\n\t\trequire(adminSigner[msg.sender] || msg.sender == owner(), \"Unauthorized\");\n\t\t_;\n\t}\n\n\tconstructor() public Ownable() {\n\t\tpartnerAdmin[0] = msg.sender;\n\t\tpartnerAdminFees[0] = 0;\n\t\tpartnerFees[0] = 0;\n\t\tadminSigner[0x80C7EE61bB6071aAF89616893836F8a9D7e32cbc] = true;\n\t}\n\n\tfunction recoverAdminFee(address token, address reciever) external onlyAdmin {\n\t\tuint256 toClaim = IERC20(token).balanceOf(address(this));\n\t\tIERC20(token).transfer(reciever, toClaim);\n\t}\n\n\tfunction splitSignature(bytes memory sig)\n\t\tinternal\n\t\tpure\n\t\treturns (uint8, bytes32, bytes32)\n\t{\n\t\trequire(sig.length == 65, \"signature is not 65 bytes\");\n\n\t\tbytes32 r;\n\t\tbytes32 s;\n\t\tuint8 v;\n\n\t\tassembly {\n\t\t\t// first 32 bytes, after the length prefix\n\t\t\tr := mload(add(sig, 32))\n\t\t\t// second 32 bytes\n\t\t\ts := mload(add(sig, 64))\n\t\t\t// final byte (first byte of the next 32 bytes)\n\t\t\tv := byte(0, mload(add(sig, 96)))\n\t\t}\n\n\t\treturn (v, r, s);\n\t}\n\n\tfunction setAdmin(address addr, bool isAdmin) external onlyOwner {\n\t\tadminSigner[addr] = isAdmin;\n\t}\n\n\tfunction setPartnerAdmin(uint256 partnerId, address admin) external partnerAuthorized(partnerId) {\n\t\tpartnerAdmin[partnerId] = admin;\n\t}\n\n\tfunction setPartnerFee(uint256 partnerId, uint256 feeNumerator) external partnerAuthorized(partnerId) {\n\t\tuint256 oldFee = partnerFees[partnerId];\n\t\tpartnerFees[partnerId] = feeNumerator;\n\t\temit FeeChanged(partnerId, msg.sender, false, oldFee, feeNumerator);\n\t}\n\n\tfunction setAdminFee(uint256 partnerId, uint256 feeNumerator) external onlyAdmin {\n\t\tuint256 oldFee = partnerAdminFees[partnerId];\n\t\tpartnerAdminFees[partnerId] = feeNumerator;\n\t\temit FeeChanged(partnerId, msg.sender, true, oldFee, feeNumerator);\n\t}\n\n\t// Builds a prefixed hash to mimic the behavior of eth_sign.\n\tfunction prefixed(bytes32 hash) internal pure returns (bytes32) {\n    \treturn keccak256(abi.encodePacked(\"\\x19Ethereum Signed Message:\\n32\", hash));\n\t}\n\n\tfunction recoverSigner(bytes32 message, bytes memory sig)\n        internal\n        pure\n        returns (address)\n\t{\n\t\tuint8 v;\n\t\tbytes32 r;\n\t\tbytes32 s;\n\n\t\t(v, r, s) = splitSignature(sig);\n\n\t\treturn ecrecover(message, v, r, s);\n\t}\n\n\tfunction getPartnerInfo(uint256 partnerId, uint deadline, address tokenIn, address tokenOut, bytes memory sig) internal view returns (uint256 partner) {\n\t\tbytes32 message = prefixed(keccak256(abi.encodePacked(partnerId, deadline, tokenIn, tokenOut)));\n\t\tuint8 v;\n\t\tbytes32 r;\n\t\tbytes32 s;\n\n\t\t(v, r, s) = splitSignature(sig);\n\t\taddress signer = ecrecover(message, v, r, s);\n\n\t\tif (adminSigner[signer]) {\n\t\t\treturn partnerId;\n\t\t}\n\t\treturn 0;\n\t} \n\n\tfunction getOutputAmount(\n\t\taddress[] calldata path,\n\t\taddress[] calldata pairs,\n\t\tbytes[] calldata extras,\n\t\tuint256 inputAmount\n\t) external override view returns (uint256 outputAmount) {\n\t\toutputAmount = inputAmount;\n\t\tfor (uint i; i < pairs.length; i++) {\n\t\t\toutputAmount =\n\t\t\t\tISwappaPairV1(pairs[i]).getOutputAmount(path[i], path[i+1], outputAmount, extras[i]);\n\t\t}\n\t}\n\n\tfunction disperseWithFee(address output, uint256 minOutputAmount, uint256 expectedOutput, uint256 outputAmount, address to, uint256 partnerId) internal returns (uint256) {\n\t\tuint256 partnerFee = outputAmount.mul(partnerFees[partnerId]).div(FEE_DENOMINATOR);\n\t\tuint256 adminFee = outputAmount.mul(partnerAdminFees[partnerId]).div(FEE_DENOMINATOR);\n\t\toutputAmount = outputAmount.sub(partnerFee.add(adminFee));\n\t\toutputAmount = outputAmount < expectedOutput ? outputAmount : expectedOutput; // Capture positive slippage\n\n\t\trequire(\n\t\t\toutputAmount >= minOutputAmount, \"SwappaRouter: Insufficient output amount!\");\n\n\t\trequire(\n\t\t\tERC20(output).transfer(to, outputAmount),\n\t\t\t\"SwappaRouter: Final transfer failed!\");\n\t\trequire(\n\t\t\tERC20(output).transfer(partnerAdmin[partnerId], partnerFee),\n\t\t\t\"Partner fee transfer failed\"\n\t\t);\n\t\treturn outputAmount;\n\t}\n\n\tfunction swapExactInputForOutput(SwapPayload calldata details) external override ensure(details.deadline) returns (uint256 outputAmount) {\n\t\trequire(details.path.length == details.pairs.length + 1 , \"SwappaRouter: Path and Pairs mismatch!\");\n\t\trequire(details.pairs.length == details.extras.length, \"SwappaRouter: Pairs and Extras mismatch!\");\n\t\trequire(details.pairs.length > 0, \"SwappaRouter: Must have at least one pair!\");\n\n\t\trequire(\n\t\t\tERC20(details.path[0]).transferFrom(msg.sender, details.pairs[0], details.inputAmount),\n\t\t\t\"SwappaRouter: Initial transferFrom failed!\");\n\t\taddress output = details.path[details.path.length - 1];\n\t\tuint256 outputBalanceBefore = ERC20(output).balanceOf(address(this));\n\t\tfor (uint i; i < details.pairs.length; i++) {\n\t\t\t(address pairInput, address pairOutput) = (details.path[i], details.path[i + 1]);\n\t\t\taddress next = i < details.pairs.length - 1 ? details.pairs[i+1] : address(this);\n\t\t\tbytes memory data = details.extras[i];\n\t\t\tISwappaPairV1(details.pairs[i]).swap(pairInput, pairOutput, next, data);\n\t\t}\n\t\tuint256 tradeOutput = ERC20(output).balanceOf(address(this)) - outputBalanceBefore;\n\t\tuint256 partnerId = getPartnerInfo(details.partner, details.deadline, details.path[0], output, details.sig);\n\t\toutputAmount = disperseWithFee(output, details.minOutputAmount, details.expectedOutputAmount, tradeOutput, details.to, partnerId);\n\t\temit Swap(msg.sender, details.to, details.path[0], output, details.inputAmount, outputAmount);\n\t}\n\n\treceive() external payable {}\n}",
  "sourcePath": "/Users/sophiaparrett/Documents/GitHub/Router-Service/contracts/swappa/SwappaRouterV1.sol",
  "compiler": {
    "name": "solc",
    "version": "0.6.8+commit.0bbfe453.Emscripten.clang"
  },
  "schemaVersion": "3.4.7",
  "updatedAt": "2022-08-11T05:06:10.916Z",
  "devdoc": {
    "methods": {
      "owner()": {
        "details": "Returns the address of the current owner."
      },
      "renounceOwnership()": {
        "details": "Leaves the contract without owner. It will not be possible to call `onlyOwner` functions anymore. Can only be called by the current owner.     * NOTE: Renouncing ownership will leave the contract without an owner, thereby removing any functionality that is only available to the owner."
      },
      "transferOwnership(address)": {
        "details": "Transfers ownership of the contract to a new account (`newOwner`). Can only be called by the current owner."
      }
    }
  },
  "userdoc": {
    "methods": {}
  }
}